{
  "_format": "hh-sol-artifact-1",
  "contractName": "TestDaiMintSpell",
  "sourceName": "contracts/test/TestDaiMintSpell.sol",
  "abi": [
    {
      "inputs": [
        {
          "internalType": "address",
          "name": "_dai",
          "type": "address"
        },
        {
          "internalType": "address",
          "name": "_user",
          "type": "address"
        },
        {
          "internalType": "uint256",
          "name": "_amount",
          "type": "uint256"
        }
      ],
      "name": "mintDai",
      "outputs": [],
      "stateMutability": "nonpayable",
      "type": "function"
    }
  ],
  "bytecode": "0x60806040523480156100195760008061001661001f565b50505b5061008d565b632a2a7adb598160e01b8152600481016020815285602082015260005b8681101561005a57808601518160408401015260208101905061003c565b506020828760640184336000905af158600e01573d6000803e3d6000fd5b3d6001141558600a015760016000f35b505050565b61033e8061009c6000396000f3fe60806040523480156100195760008061001661016d565b50505b50600436106100345760003560e01c80636638634814610042575b60008061003f61016d565b50505b6100b7600480360360608110156100615760008061005e61016d565b50505b81019080803573ffffffffffffffffffffffffffffffffffffffff169060200190929190803573ffffffffffffffffffffffffffffffffffffffff169060200190929190803590602001909291905050506100b9565b005b8273ffffffffffffffffffffffffffffffffffffffff166340c10f1983836040518363ffffffff1660e01b8152600401808373ffffffffffffffffffffffffffffffffffffffff16815260200182815260200192505050600060405180830381600087806101256101db565b15801561013a5760008061013761016d565b50505b505a61014461023e565b505050505050158015610164573d6000803e3d600061016161016d565b50505b50505050505050565b632a2a7adb598160e01b8152600481016020815285602082015260005b868110156101a857808601518160408401015260208101905061018a565b506020828760640184336000905af158600e01573d6000803e3d6000fd5b3d6001141558600a015760016000f35b505050565b638435035b598160e01b8152836004820152602081602483336000905af158600e01573d6000803e3d6000fd5b3d6001141558600a015760016000f35b8051935060005b60408110156102395760008183015260208101905061021f565b505050565b6385979f76598160e01b815261027d565b600081905081831115610260578290505b92915050565b600081905081831015610277578290505b92915050565b836004820152846024820152606060448201528760648201526084810160005b898110156102b857808901518183015260208101905061029d565b506060828a60a40184336000905af158600e01573d6000803e3d6000fd5b3d6001141558600a015760016000f35b815160408301513d6000853e8c8c82606087013350600060045af1505961030d8e3d610266565b8d01610319818761024f565b5b82811015610331576000815260208101905061031a565b50839e505050505050505056",
  "linkReferences": {},
  "deployedLinkReferences": {}
}