{
  "_format": "hh-sol-artifact-1",
  "contractName": "TestBridgeUpgradeSpell",
  "sourceName": "contracts/test/TestBridgeUpgradeSpell.sol",
  "abi": [
    {
      "inputs": [
        {
          "internalType": "address",
          "name": "_oldBridge",
          "type": "address"
        },
        {
          "internalType": "address",
          "name": "_newBridge",
          "type": "address"
        }
      ],
      "name": "upgradeBridge",
      "outputs": [],
      "stateMutability": "nonpayable",
      "type": "function"
    }
  ],
  "bytecode": "0x60806040523480156100195760008061001661001f565b50505b5061008d565b632a2a7adb598160e01b8152600481016020815285602082015260005b8681101561005a57808601518160408401015260208101905061003c565b506020828760640184336000905af158600e01573d6000803e3d6000fd5b3d6001141558600a015760016000f35b505050565b6106128061009c6000396000f3fe608060405234801561001957600080610016610341565b50505b50600436106100345760003560e01c8063c92ff21f14610042575b60008061003f610341565b50505b6100ad600480360360408110156100615760008061005e610341565b50505b81019080803573ffffffffffffffffffffffffffffffffffffffff169060200190929190803573ffffffffffffffffffffffffffffffffffffffff1690602001909291905050506100af565b005b600082905060008173ffffffffffffffffffffffffffffffffffffffff166356eff2676040518163ffffffff1660e01b815260040160206040518083038186806100f76103af565b15801561010c57600080610109610341565b50505b505a610116610412565b5050505050158015610135573d6000803e3d6000610132610341565b50505b505050506040513d602081101561015457600080610151610341565b50505b810190808051906020019092919050505090508173ffffffffffffffffffffffffffffffffffffffff166343d726d66040518163ffffffff1660e01b8152600401600060405180830381600087806101aa6103af565b1580156101bf576000806101bc610341565b50505b505a6101c9610512565b5050505050501580156101e9573d6000803e3d60006101e6610341565b50505b505050508073ffffffffffffffffffffffffffffffffffffffff16639c52a7f1856040518263ffffffff1660e01b8152600401808273ffffffffffffffffffffffffffffffffffffffff168152602001915050600060405180830381600087806102516103af565b15801561026657600080610263610341565b50505b505a610270610512565b505050505050158015610290573d6000803e3d600061028d610341565b50505b505050508073ffffffffffffffffffffffffffffffffffffffff166365fae35e846040518263ffffffff1660e01b8152600401808273ffffffffffffffffffffffffffffffffffffffff168152602001915050600060405180830381600087806102f86103af565b15801561030d5760008061030a610341565b50505b505a610317610512565b505050505050158015610337573d6000803e3d6000610334610341565b50505b5050505050505050565b632a2a7adb598160e01b8152600481016020815285602082015260005b8681101561037c57808601518160408401015260208101905061035e565b506020828760640184336000905af158600e01573d6000803e3d6000fd5b3d6001141558600a015760016000f35b505050565b638435035b598160e01b8152836004820152602081602483336000905af158600e01573d6000803e3d6000fd5b3d6001141558600a015760016000f35b8051935060005b604081101561040d576000818301526020810190506103f3565b505050565b638540661f598160e01b8152610451565b600081905081831115610434578290505b92915050565b60008190508183101561044b578290505b92915050565b836004820152846024820152606060448201528660648201526084810160005b8881101561048c578088015181830152602081019050610471565b506060828960a40184336000905af158600e01573d6000803e3d6000fd5b3d6001141558600a015760016000f35b815160408301513d6000853e8b8b82606087013350600060045af150596104e18d3d61043a565b8c016104ed8187610423565b5b8281101561050557600081526020810190506104ee565b50839d5050505050505050565b6385979f76598160e01b8152610551565b600081905081831115610534578290505b92915050565b60008190508183101561054b578290505b92915050565b836004820152846024820152606060448201528760648201526084810160005b8981101561058c578089015181830152602081019050610571565b506060828a60a40184336000905af158600e01573d6000803e3d6000fd5b3d6001141558600a015760016000f35b815160408301513d6000853e8c8c82606087013350600060045af150596105e18e3d61053a565b8d016105ed8187610523565b5b8281101561060557600081526020810190506105ee565b50839e505050505050505056",
  "linkReferences": {},
  "deployedLinkReferences": {}
}