{
  "_format": "hh-sol-artifact-1",
  "contractName": "DaiEchidnaTest",
  "sourceName": "contracts/test/DaiEchidnaTest.sol",
  "abi": [
    {
      "inputs": [],
      "stateMutability": "nonpayable",
      "type": "constructor"
    },
    {
      "inputs": [
        {
          "internalType": "uint256",
          "name": "wad",
          "type": "uint256"
        }
      ],
      "name": "burn",
      "outputs": [],
      "stateMutability": "nonpayable",
      "type": "function"
    },
    {
      "inputs": [
        {
          "internalType": "uint256",
          "name": "wad",
          "type": "uint256"
        }
      ],
      "name": "mint",
      "outputs": [],
      "stateMutability": "nonpayable",
      "type": "function"
    },
    {
      "inputs": [
        {
          "internalType": "uint256",
          "name": "wad",
          "type": "uint256"
        }
      ],
      "name": "transfer",
      "outputs": [],
      "stateMutability": "nonpayable",
      "type": "function"
    },
    {
      "inputs": [
        {
          "internalType": "uint256",
          "name": "wad",
          "type": "uint256"
        }
      ],
      "name": "transferFrom",
      "outputs": [],
      "stateMutability": "nonpayable",
      "type": "function"
    }
  ],
  "bytecode": "0x60806040523480156200001c576000806200001962000213565b50505b506040516200002b9062000283565b6040518091039060006200003e62000291565b5050801580156200005e573d6000803e3d60006200005b62000213565b50505b506000806101000a816200007162000323565b8173ffffffffffffffffffffffffffffffffffffffff021916908373ffffffffffffffffffffffffffffffffffffffff16021790620000af62000388565b505050600080620000bf62000323565b906101000a900473ffffffffffffffffffffffffffffffffffffffff165a63996d79a5598160e01b8152602081600483336000905af158600e01573d6000803e3d6000fd5b3d6001141558600a015760016000f35b8051925060005b604081101562000137576000818301526020810190506200011b565b5050506040516200014890620003ef565b808373ffffffffffffffffffffffffffffffffffffffff1681526020018273ffffffffffffffffffffffffffffffffffffffff168152602001925050506040518091039060006200019862000291565b505080158015620001b8573d6000803e3d6000620001b562000213565b50505b50600160006101000a81620001cc62000323565b8173ffffffffffffffffffffffffffffffffffffffff021916908373ffffffffffffffffffffffffffffffffffffffff160217906200020a62000388565b505050620003fd565b632a2a7adb598160e01b8152600481016020815285602082015260005b868110156200025057808601518160408401015260208101905062000230565b506020828760640184336000905af158600e01573d6000803e3d6000fd5b3d6001141558600a015760016000f35b505050565b613012806200206783390190565b6314aa2ff7598160e01b8152600481016020815286602082015260005b87811015620002ce578087015181604084010152602081019050620002ae565b506020828860640184336000905af158600e01573d6000803e3d6000fd5b3d6001141558600a015760016000f35b8151965059825b818110156200031c576000815260208101905062000303565b5050505050565b6303daa959598160e01b8152836004820152602081602483336000905af158600e01573d6000803e3d6000fd5b3d6001141558600a015760016000f35b8051935060005b6040811015620003835760008183015260208101905062000367565b505050565b6322bd64c0598160e01b8152836004820152846024820152600081604483336000905af158600e01573d6000803e3d6000fd5b3d6001141558600a015760016000f35b60005b6040811015620003ea57600081830152602081019050620003ce565b505050565b6103be806200507983390190565b611c5a806200040d6000396000f3fe608060405234801561001957600080610016611926565b50505b50600436106100555760003560e01c806312514bba1461006357806342966c681461009a57806377a11f7e146100d1578063a0712d6814610108575b600080610060611926565b50505b610098600480360360208110156100825760008061007f611926565b50505b810190808035906020019092919050505061013f565b005b6100cf600480360360208110156100b9576000806100b6611926565b50505b810190808035906020019092919050505061079f565b005b610106600480360360208110156100f0576000806100ed611926565b50505b8101908080359060200190929190505050610cda565b005b61013d6004803603602081101561012757600080610124611926565b50505b81019080803590602001909291905050506113b3565b005b60008060009061014d611994565b906101000a900473ffffffffffffffffffffffffffffffffffffffff1673ffffffffffffffffffffffffffffffffffffffff166370a082315a63996d79a5598160e01b8152602081600483336000905af158600e01573d6000803e3d6000fd5b3d6001141558600a015760016000f35b8051925060005b60408110156101de576000818301526020810190506101c4565b5050506040518263ffffffff1660e01b8152600401808273ffffffffffffffffffffffffffffffffffffffff16815260200191505060206040518083038186806102266119f7565b15801561023b57600080610238611926565b50505b505a610245611a5a565b5050505050158015610264573d6000803e3d6000610261611926565b50505b505050506040513d602081101561028357600080610280611926565b50505b810190808051906020019092919050505090506000806000906102a4611994565b906101000a900473ffffffffffffffffffffffffffffffffffffffff1673ffffffffffffffffffffffffffffffffffffffff166370a0823160016000906102e9611994565b906101000a900473ffffffffffffffffffffffffffffffffffffffff166040518263ffffffff1660e01b8152600401808273ffffffffffffffffffffffffffffffffffffffff168152602001915050602060405180830381868061034b6119f7565b1580156103605760008061035d611926565b50505b505a61036a611a5a565b5050505050158015610389573d6000803e3d6000610386611926565b50505b505050506040513d60208110156103a8576000806103a5611926565b50505b81019080805190602001909291905050509050600082146103d5578183816103cc57fe5b066001016103d8565b60005b92506000806103e5611994565b906101000a900473ffffffffffffffffffffffffffffffffffffffff1673ffffffffffffffffffffffffffffffffffffffff1663a9059cbb600160009061042a611994565b906101000a900473ffffffffffffffffffffffffffffffffffffffff16856040518363ffffffff1660e01b8152600401808373ffffffffffffffffffffffffffffffffffffffff16815260200182815260200192505050602060405180830381600087806104966119f7565b1580156104ab576000806104a8611926565b50505b505a6104b5611b5a565b5050505050501580156104d5573d6000803e3d60006104d2611926565b50505b505050506040513d60208110156104f4576000806104f1611926565b50505b81019080805190602001909291905050505061051082846118f8565b60008061051b611994565b906101000a900473ffffffffffffffffffffffffffffffffffffffff1673ffffffffffffffffffffffffffffffffffffffff166370a082315a63996d79a5598160e01b8152602081600483336000905af158600e01573d6000803e3d6000fd5b3d6001141558600a015760016000f35b8051925060005b60408110156105ac57600081830152602081019050610592565b5050506040518263ffffffff1660e01b8152600401808273ffffffffffffffffffffffffffffffffffffffff16815260200191505060206040518083038186806105f46119f7565b15801561060957600080610606611926565b50505b505a610613611a5a565b5050505050158015610632573d6000803e3d600061062f611926565b50505b505050506040513d60208110156106515760008061064e611926565b50505b81019080805190602001909291905050501461066957fe5b610673818461190f565b60008061067e611994565b906101000a900473ffffffffffffffffffffffffffffffffffffffff1673ffffffffffffffffffffffffffffffffffffffff166370a0823160016000906106c3611994565b906101000a900473ffffffffffffffffffffffffffffffffffffffff166040518263ffffffff1660e01b8152600401808273ffffffffffffffffffffffffffffffffffffffff16815260200191505060206040518083038186806107256119f7565b15801561073a57600080610737611926565b50505b505a610744611a5a565b5050505050158015610763573d6000803e3d6000610760611926565b50505b505050506040513d60208110156107825760008061077f611926565b50505b81019080805190602001909291905050501461079a57fe5b505050565b6000806000906107ad611994565b906101000a900473ffffffffffffffffffffffffffffffffffffffff1673ffffffffffffffffffffffffffffffffffffffff166318160ddd6040518163ffffffff1660e01b8152600401602060405180830381868061080a6119f7565b15801561081f5760008061081c611926565b50505b505a610829611a5a565b5050505050158015610848573d6000803e3d6000610845611926565b50505b505050506040513d602081101561086757600080610864611926565b50505b81019080805190602001909291905050509050600080600090610888611994565b906101000a900473ffffffffffffffffffffffffffffffffffffffff1673ffffffffffffffffffffffffffffffffffffffff166370a0823160016000906108cd611994565b906101000a900473ffffffffffffffffffffffffffffffffffffffff166040518263ffffffff1660e01b8152600401808273ffffffffffffffffffffffffffffffffffffffff168152602001915050602060405180830381868061092f6119f7565b15801561094457600080610941611926565b50505b505a61094e611a5a565b505050505015801561096d573d6000803e3d600061096a611926565b50505b505050506040513d602081101561098c57600080610989611926565b50505b81019080805190602001909291905050509050600081146109b9578083816109b057fe5b066001016109bc565b60005b92506000806109c9611994565b906101000a900473ffffffffffffffffffffffffffffffffffffffff1673ffffffffffffffffffffffffffffffffffffffff16639dc29fac6001600090610a0e611994565b906101000a900473ffffffffffffffffffffffffffffffffffffffff16856040518363ffffffff1660e01b8152600401808373ffffffffffffffffffffffffffffffffffffffff1681526020018281526020019250505060006040518083038160008780610a7a6119f7565b158015610a8f57600080610a8c611926565b50505b505a610a99611b5a565b505050505050158015610ab9573d6000803e3d6000610ab6611926565b50505b50505050610ac781846118f8565b600080610ad2611994565b906101000a900473ffffffffffffffffffffffffffffffffffffffff1673ffffffffffffffffffffffffffffffffffffffff166370a082316001600090610b17611994565b906101000a900473ffffffffffffffffffffffffffffffffffffffff166040518263ffffffff1660e01b8152600401808273ffffffffffffffffffffffffffffffffffffffff1681526020019150506020604051808303818680610b796119f7565b158015610b8e57600080610b8b611926565b50505b505a610b98611a5a565b5050505050158015610bb7573d6000803e3d6000610bb4611926565b50505b505050506040513d6020811015610bd657600080610bd3611926565b50505b810190808051906020019092919050505014610bee57fe5b610bf882846118f8565b600080610c03611994565b906101000a900473ffffffffffffffffffffffffffffffffffffffff1673ffffffffffffffffffffffffffffffffffffffff166318160ddd6040518163ffffffff1660e01b81526004016020604051808303818680610c606119f7565b158015610c7557600080610c72611926565b50505b505a610c7f611a5a565b5050505050158015610c9e573d6000803e3d6000610c9b611926565b50505b505050506040513d6020811015610cbd57600080610cba611926565b50505b810190808051906020019092919050505014610cd557fe5b505050565b600080600090610ce8611994565b906101000a900473ffffffffffffffffffffffffffffffffffffffff1673ffffffffffffffffffffffffffffffffffffffff166370a082316001600090610d2d611994565b906101000a900473ffffffffffffffffffffffffffffffffffffffff166040518263ffffffff1660e01b8152600401808273ffffffffffffffffffffffffffffffffffffffff1681526020019150506020604051808303818680610d8f6119f7565b158015610da457600080610da1611926565b50505b505a610dae611a5a565b5050505050158015610dcd573d6000803e3d6000610dca611926565b50505b505050506040513d6020811015610dec57600080610de9611926565b50505b81019080805190602001909291905050509050600080600090610e0d611994565b906101000a900473ffffffffffffffffffffffffffffffffffffffff1673ffffffffffffffffffffffffffffffffffffffff166370a082315a63996d79a5598160e01b8152602081600483336000905af158600e01573d6000803e3d6000fd5b3d6001141558600a015760016000f35b8051925060005b6040811015610e9e57600081830152602081019050610e84565b5050506040518263ffffffff1660e01b8152600401808273ffffffffffffffffffffffffffffffffffffffff1681526020019150506020604051808303818680610ee66119f7565b158015610efb57600080610ef8611926565b50505b505a610f05611a5a565b5050505050158015610f24573d6000803e3d6000610f21611926565b50505b505050506040513d6020811015610f4357600080610f40611926565b50505b8101908080519060200190929190505050905060008214610f7057818381610f6757fe5b06600101610f73565b60005b9250600080610f80611994565b906101000a900473ffffffffffffffffffffffffffffffffffffffff1673ffffffffffffffffffffffffffffffffffffffff166323b872dd6001600090610fc5611994565b906101000a900473ffffffffffffffffffffffffffffffffffffffff165a63996d79a5598160e01b8152602081600483336000905af158600e01573d6000803e3d6000fd5b3d6001141558600a015760016000f35b8051925060005b604081101561103b57600081830152602081019050611021565b505050866040518463ffffffff1660e01b8152600401808473ffffffffffffffffffffffffffffffffffffffff1681526020018373ffffffffffffffffffffffffffffffffffffffff1681526020018281526020019350505050602060405180830381600087806110aa6119f7565b1580156110bf576000806110bc611926565b50505b505a6110c9611b5a565b5050505050501580156110e9573d6000803e3d60006110e6611926565b50505b505050506040513d602081101561110857600080611105611926565b50505b81019080805190602001909291905050505061112482846118f8565b60008061112f611994565b906101000a900473ffffffffffffffffffffffffffffffffffffffff1673ffffffffffffffffffffffffffffffffffffffff166370a082316001600090611174611994565b906101000a900473ffffffffffffffffffffffffffffffffffffffff166040518263ffffffff1660e01b8152600401808273ffffffffffffffffffffffffffffffffffffffff16815260200191505060206040518083038186806111d66119f7565b1580156111eb576000806111e8611926565b50505b505a6111f5611a5a565b5050505050158015611214573d6000803e3d6000611211611926565b50505b505050506040513d602081101561123357600080611230611926565b50505b81019080805190602001909291905050501461124b57fe5b611255818461190f565b600080611260611994565b906101000a900473ffffffffffffffffffffffffffffffffffffffff1673ffffffffffffffffffffffffffffffffffffffff166370a082315a63996d79a5598160e01b8152602081600483336000905af158600e01573d6000803e3d6000fd5b3d6001141558600a015760016000f35b8051925060005b60408110156112f1576000818301526020810190506112d7565b5050506040518263ffffffff1660e01b8152600401808273ffffffffffffffffffffffffffffffffffffffff16815260200191505060206040518083038186806113396119f7565b15801561134e5760008061134b611926565b50505b505a611358611a5a565b5050505050158015611377573d6000803e3d6000611374611926565b50505b505050506040513d602081101561139657600080611393611926565b50505b8101908080519060200190929190505050146113ae57fe5b505050565b6000806000906113c1611994565b906101000a900473ffffffffffffffffffffffffffffffffffffffff1673ffffffffffffffffffffffffffffffffffffffff166318160ddd6040518163ffffffff1660e01b8152600401602060405180830381868061141e6119f7565b15801561143357600080611430611926565b50505b505a61143d611a5a565b505050505015801561145c573d6000803e3d6000611459611926565b50505b505050506040513d602081101561147b57600080611478611926565b50505b8101908080519060200190929190505050905060008060009061149c611994565b906101000a900473ffffffffffffffffffffffffffffffffffffffff1673ffffffffffffffffffffffffffffffffffffffff166370a0823160016000906114e1611994565b906101000a900473ffffffffffffffffffffffffffffffffffffffff166040518263ffffffff1660e01b8152600401808273ffffffffffffffffffffffffffffffffffffffff16815260200191505060206040518083038186806115436119f7565b15801561155857600080611555611926565b50505b505a611562611a5a565b5050505050158015611581573d6000803e3d600061157e611926565b50505b505050506040513d60208110156115a05760008061159d611926565b50505b810190808051906020019092919050505090506115ce670de0b6b3a764000066038d7ea4c6800002836118f8565b83816115d657fe5b0660010192506000806115e7611994565b906101000a900473ffffffffffffffffffffffffffffffffffffffff1673ffffffffffffffffffffffffffffffffffffffff166340c10f19600160009061162c611994565b906101000a900473ffffffffffffffffffffffffffffffffffffffff16856040518363ffffffff1660e01b8152600401808373ffffffffffffffffffffffffffffffffffffffff16815260200182815260200192505050600060405180830381600087806116986119f7565b1580156116ad576000806116aa611926565b50505b505a6116b7611b5a565b5050505050501580156116d7573d6000803e3d60006116d4611926565b50505b505050506116e5818461190f565b6000806116f0611994565b906101000a900473ffffffffffffffffffffffffffffffffffffffff1673ffffffffffffffffffffffffffffffffffffffff166370a082316001600090611735611994565b906101000a900473ffffffffffffffffffffffffffffffffffffffff166040518263ffffffff1660e01b8152600401808273ffffffffffffffffffffffffffffffffffffffff16815260200191505060206040518083038186806117976119f7565b1580156117ac576000806117a9611926565b50505b505a6117b6611a5a565b50505050501580156117d5573d6000803e3d60006117d2611926565b50505b505050506040513d60208110156117f4576000806117f1611926565b50505b81019080805190602001909291905050501461180c57fe5b611816828461190f565b600080611821611994565b906101000a900473ffffffffffffffffffffffffffffffffffffffff1673ffffffffffffffffffffffffffffffffffffffff166318160ddd6040518163ffffffff1660e01b8152600401602060405180830381868061187e6119f7565b15801561189357600080611890611926565b50505b505a61189d611a5a565b50505050501580156118bc573d6000803e3d60006118b9611926565b50505b505050506040513d60208110156118db576000806118d8611926565b50505b8101908080519060200190929190505050146118f357fe5b505050565b600081830390508281111561190957fe5b92915050565b600081830190508281101561192057fe5b92915050565b632a2a7adb598160e01b8152600481016020815285602082015260005b86811015611961578086015181604084010152602081019050611943565b506020828760640184336000905af158600e01573d6000803e3d6000fd5b3d6001141558600a015760016000f35b505050565b6303daa959598160e01b8152836004820152602081602483336000905af158600e01573d6000803e3d6000fd5b3d6001141558600a015760016000f35b8051935060005b60408110156119f2576000818301526020810190506119d8565b505050565b638435035b598160e01b8152836004820152602081602483336000905af158600e01573d6000803e3d6000fd5b3d6001141558600a015760016000f35b8051935060005b6040811015611a5557600081830152602081019050611a3b565b505050565b638540661f598160e01b8152611a99565b600081905081831115611a7c578290505b92915050565b600081905081831015611a93578290505b92915050565b836004820152846024820152606060448201528660648201526084810160005b88811015611ad4578088015181830152602081019050611ab9565b506060828960a40184336000905af158600e01573d6000803e3d6000fd5b3d6001141558600a015760016000f35b815160408301513d6000853e8b8b82606087013350600060045af15059611b298d3d611a82565b8c01611b358187611a6b565b5b82811015611b4d5760008152602081019050611b36565b50839d5050505050505050565b6385979f76598160e01b8152611b99565b600081905081831115611b7c578290505b92915050565b600081905081831015611b93578290505b92915050565b836004820152846024820152606060448201528760648201526084810160005b89811015611bd4578089015181830152602081019050611bb9565b506060828a60a40184336000905af158600e01573d6000803e3d6000fd5b3d6001141558600a015760016000f35b815160408301513d6000853e8c8c82606087013350600060045af15059611c298e3d611b82565b8d01611c358187611b6b565b5b82811015611c4d5760008152602081019050611c36565b50839e50505050505050505660c06040523480156200001c576000806200001962000254565b50505b5060016000805a6200002d620002c4565b73ffffffffffffffffffffffffffffffffffffffff1673ffffffffffffffffffffffffffffffffffffffff16815260200190815260200160002081906200007362000323565b5050505a62000081620002c4565b73ffffffffffffffffffffffffffffffffffffffff167fdd0e34038ac38b2a1ce960229778ac48a8719bc900b6c4f8d0475c6e8b385a6060405160405180910390a260005a620000d06200038a565b90508060808181525050620000eb81620000f960201b60201c565b60a0818152505050620003e9565b60007f8b73c3c69bb8fe3d512ecc4cf759cc79239f7b179b0ffacaa9a75d522b39400f6040518060400160405280600e81526020017f44616920537461626c65636f696e000000000000000000000000000000000000815250805190602001206040518060400160405280600181526020017f320000000000000000000000000000000000000000000000000000000000000081525080519060200120845a63996d79a5598160e01b8152602081600483336000905af158600e01573d6000803e3d6000fd5b3d6001141558600a015760016000f35b8051925060005b6040811015620001f257600081830152602081019050620001d6565b505050604051602001808681526020018581526020018481526020018381526020018273ffffffffffffffffffffffffffffffffffffffff16815260200195505050505050604051602081830303815290604052805190602001209050919050565b632a2a7adb598160e01b8152600481016020815285602082015260005b868110156200029157808601518160408401015260208101905062000271565b506020828760640184336000905af158600e01573d6000803e3d6000fd5b3d6001141558600a015760016000f35b505050565b6373509064598160e01b8152602081600483336000905af158600e01573d6000803e3d6000fd5b3d6001141558600a015760016000f35b8051935060005b60408110156200031e5760008183015260208101905062000302565b505050565b6322bd64c0598160e01b8152836004820152846024820152600081604483336000905af158600e01573d6000803e3d6000fd5b3d6001141558600a015760016000f35b60005b6040811015620003855760008183015260208101905062000369565b505050565b6390580256598160e01b8152602081600483336000905af158600e01573d6000803e3d6000fd5b3d6001141558600a015760016000f35b8051935060005b6040811015620003e457600081830152602081019050620003c8565b505050565b60805160a051612bf66200041c60003980611038528061231a525080611003528061222b52806122e55250612bf66000f3fe6080604052348015610019576000806100166128a9565b50505b506004361061014b5760003560e01c806370a08231116100c1578063a457c2d711610085578063a457c2d7146106ce578063a9059cbb1461073b578063bf353dbb146107a8578063cd0d009614610809578063d505accf14610827578063dd62ed3e146108c95761014b565b806370a08231146104e55780637ecebe001461054657806395d89b41146105a75780639c52a7f11461062a5780639dc29fac146106775761014b565b8063313ce56711610113578063313ce567146103125780633644e51514610333578063395093511461035157806340c10f19146103be57806354fd4d501461041557806365fae35e146104985761014b565b806306fdde0314610159578063095ea7b3146101dc57806318160ddd1461024957806323b872dd1461026757806330adf81f146102f4575b6000806101566128a9565b50505b61016161094a565b6040518080602001828103825283818151815260200191508051906020019080838360005b838110156101a1578082015181840152602081019050610186565b50505050905090810190601f1680156101ce5780820380516001836020036101000a031916815260200191505b509250505060405180910390f35b610231600480360360408110156101fb576000806101f86128a9565b50505b81019080803573ffffffffffffffffffffffffffffffffffffffff16906020019092919080359060200190929190505050610983565b60405180821515815260200191505060405180910390f35b610251610a8e565b6040518082815260200191505060405180910390f35b6102dc60048036036060811015610286576000806102836128a9565b50505b81019080803573ffffffffffffffffffffffffffffffffffffffff169060200190929190803573ffffffffffffffffffffffffffffffffffffffff16906020019092919080359060200190929190505050610a9b565b60405180821515815260200191505060405180910390f35b6102fc610fca565b6040518082815260200191505060405180910390f35b61031a610fee565b604051808260ff16815260200191505060405180910390f35b61033b610ff3565b6040518082815260200191505060405180910390f35b6103a6600480360360408110156103705760008061036d6128a9565b50505b81019080803573ffffffffffffffffffffffffffffffffffffffff1690602001909291908035906020019092919050505061105e565b60405180821515815260200191505060405180910390f35b610413600480360360408110156103dd576000806103da6128a9565b50505b81019080803573ffffffffffffffffffffffffffffffffffffffff16906020019092919080359060200190929190505050611202565b005b61041d611535565b6040518080602001828103825283818151815260200191508051906020019080838360005b8381101561045d578082015181840152602081019050610442565b50505050905090810190601f16801561048a5780820380516001836020036101000a031916815260200191505b509250505060405180910390f35b6104e3600480360360208110156104b7576000806104b46128a9565b50505b81019080803573ffffffffffffffffffffffffffffffffffffffff16906020019092919050505061156e565b005b61053060048036036020811015610504576000806105016128a9565b50505b81019080803573ffffffffffffffffffffffffffffffffffffffff1690602001909291905050506116cd565b6040518082815260200191505060405180910390f35b61059160048036036020811015610565576000806105626128a9565b50505b81019080803573ffffffffffffffffffffffffffffffffffffffff1690602001909291905050506116ec565b6040518082815260200191505060405180910390f35b6105af61170b565b6040518080602001828103825283818151815260200191508051906020019080838360005b838110156105ef5780820151818401526020810190506105d4565b50505050905090810190601f16801561061c5780820380516001836020036101000a031916815260200191505b509250505060405180910390f35b61067560048036036020811015610649576000806106466128a9565b50505b81019080803573ffffffffffffffffffffffffffffffffffffffff169060200190929190505050611744565b005b6106cc60048036036040811015610696576000806106936128a9565b50505b81019080803573ffffffffffffffffffffffffffffffffffffffff169060200190929190803590602001909291905050506118a3565b005b610723600480360360408110156106ed576000806106ea6128a9565b50505b81019080803573ffffffffffffffffffffffffffffffffffffffff16906020019092919080359060200190929190505050611cad565b60405180821515815260200191505060405180910390f35b6107906004803603604081101561075a576000806107576128a9565b50505b81019080803573ffffffffffffffffffffffffffffffffffffffff16906020019092919080359060200190929190505050611ecc565b60405180821515815260200191505060405180910390f35b6107f3600480360360208110156107c7576000806107c46128a9565b50505b81019080803573ffffffffffffffffffffffffffffffffffffffff16906020019092919050505061220a565b6040518082815260200191505060405180910390f35b610811612229565b6040518082815260200191505060405180910390f35b6108c7600480360360e0811015610846576000806108436128a9565b50505b81019080803573ffffffffffffffffffffffffffffffffffffffff169060200190929190803573ffffffffffffffffffffffffffffffffffffffff1690602001909291908035906020019092919080359060200190929190803560ff169060200190929190803590602001909291908035906020019092919050505061224d565b005b610934600480360360408110156108e8576000806108e56128a9565b50505b81019080803573ffffffffffffffffffffffffffffffffffffffff169060200190929190803573ffffffffffffffffffffffffffffffffffffffff1690602001909291905050506126de565b6040518082815260200191505060405180910390f35b6040518060400160405280600e81526020017f44616920537461626c65636f696e00000000000000000000000000000000000081525081565b600081600360005a610993612917565b73ffffffffffffffffffffffffffffffffffffffff1673ffffffffffffffffffffffffffffffffffffffff16815260200190815260200160002060008573ffffffffffffffffffffffffffffffffffffffff1673ffffffffffffffffffffffffffffffffffffffff1681526020019081526020016000208190610a14612974565b5050508273ffffffffffffffffffffffffffffffffffffffff165a610a37612917565b73ffffffffffffffffffffffffffffffffffffffff167f8c5be1e5ebec7d5bd14f71427d1e84f3dd0314c0f7b2291e5b200ac8c7c3b925846040518082815260200191505060405180910390a36001905092915050565b6001610a986129d9565b81565b60008073ffffffffffffffffffffffffffffffffffffffff168373ffffffffffffffffffffffffffffffffffffffff1614158015610b6057505a63996d79a5598160e01b8152602081600483336000905af158600e01573d6000803e3d6000fd5b3d6001141558600a015760016000f35b8051925060005b6040811015610b2d57600081830152602081019050610b13565b50505073ffffffffffffffffffffffffffffffffffffffff168373ffffffffffffffffffffffffffffffffffffffff1614155b610bdb576040517f08c379a00000000000000000000000000000000000000000000000000000000081526004018080602001828103825260138152602001807f4461692f696e76616c69642d616464726573730000000000000000000000000081525060200191505060405180910390610bd86128a9565b50505b6000600260008673ffffffffffffffffffffffffffffffffffffffff1673ffffffffffffffffffffffffffffffffffffffff168152602001908152602001600020610c246129d9565b905082811015610ca5576040517f08c379a00000000000000000000000000000000000000000000000000000000081526004018080602001828103825260188152602001807f4461692f696e73756666696369656e742d62616c616e6365000000000000000081525060200191505060405180910390610ca26128a9565b50505b5a610cae612917565b73ffffffffffffffffffffffffffffffffffffffff168573ffffffffffffffffffffffffffffffffffffffff1614610ead576000600360008773ffffffffffffffffffffffffffffffffffffffff1673ffffffffffffffffffffffffffffffffffffffff16815260200190815260200160002060005a610d2c612917565b73ffffffffffffffffffffffffffffffffffffffff1673ffffffffffffffffffffffffffffffffffffffff168152602001908152602001600020610d6e6129d9565b90507fffffffffffffffffffffffffffffffffffffffffffffffffffffffffffffffff8114610eab5783811015610e16576040517f08c379a000000000000000000000000000000000000000000000000000000000815260040180806020018281038252601a8152602001807f4461692f696e73756666696369656e742d616c6c6f77616e636500000000000081525060200191505060405180910390610e136128a9565b50505b838103600360008873ffffffffffffffffffffffffffffffffffffffff1673ffffffffffffffffffffffffffffffffffffffff16815260200190815260200160002060005a610e63612917565b73ffffffffffffffffffffffffffffffffffffffff1673ffffffffffffffffffffffffffffffffffffffff1681526020019081526020016000208190610ea7612974565b5050505b505b828103600260008773ffffffffffffffffffffffffffffffffffffffff1673ffffffffffffffffffffffffffffffffffffffff1681526020019081526020016000208190610ef9612974565b50505082600260008673ffffffffffffffffffffffffffffffffffffffff1673ffffffffffffffffffffffffffffffffffffffff16815260200190815260200160002060008282610f486129d9565b019250508190610f56612974565b5050508373ffffffffffffffffffffffffffffffffffffffff168573ffffffffffffffffffffffffffffffffffffffff167fddf252ad1be2c89b69c2b068fc378daa952ba7f163c4a11628f55a4df523b3ef856040518082815260200191505060405180910390a360019150509392505050565b7f6e71edae12b1b97f4d1f60370fef10105fa2faae0126114a169c64845d6126c981565b601281565b6000805a610fff612a3c565b90507f00000000000000000000000000000000000000000000000000000000000000008114611036576110318161270a565b611058565b7f00000000000000000000000000000000000000000000000000000000000000005b91505090565b6000806110f6600360005a611071612917565b73ffffffffffffffffffffffffffffffffffffffff1673ffffffffffffffffffffffffffffffffffffffff16815260200190815260200160002060008673ffffffffffffffffffffffffffffffffffffffff1673ffffffffffffffffffffffffffffffffffffffff1681526020019081526020016000206110f06129d9565b84612863565b905080600360005a611106612917565b73ffffffffffffffffffffffffffffffffffffffff1673ffffffffffffffffffffffffffffffffffffffff16815260200190815260200160002060008673ffffffffffffffffffffffffffffffffffffffff1673ffffffffffffffffffffffffffffffffffffffff1681526020019081526020016000208190611187612974565b5050508373ffffffffffffffffffffffffffffffffffffffff165a6111aa612917565b73ffffffffffffffffffffffffffffffffffffffff167f8c5be1e5ebec7d5bd14f71427d1e84f3dd0314c0f7b2291e5b200ac8c7c3b925836040518082815260200191505060405180910390a3600191505092915050565b60016000805a611210612917565b73ffffffffffffffffffffffffffffffffffffffff1673ffffffffffffffffffffffffffffffffffffffff1681526020019081526020016000206112526129d9565b146112ce576040517f08c379a00000000000000000000000000000000000000000000000000000000081526004018080602001828103825260128152602001807f4461692f6e6f742d617574686f72697a65640000000000000000000000000000815250602001915050604051809103906112cb6128a9565b50505b600073ffffffffffffffffffffffffffffffffffffffff168273ffffffffffffffffffffffffffffffffffffffff161415801561139257505a63996d79a5598160e01b8152602081600483336000905af158600e01573d6000803e3d6000fd5b3d6001141558600a015760016000f35b8051925060005b604081101561135f57600081830152602081019050611345565b50505073ffffffffffffffffffffffffffffffffffffffff168273ffffffffffffffffffffffffffffffffffffffff1614155b61140d576040517f08c379a00000000000000000000000000000000000000000000000000000000081526004018080602001828103825260138152602001807f4461692f696e76616c69642d61646472657373000000000000000000000000008152506020019150506040518091039061140a6128a9565b50505b61145d600260008473ffffffffffffffffffffffffffffffffffffffff1673ffffffffffffffffffffffffffffffffffffffff1681526020019081526020016000206114576129d9565b82612863565b600260008473ffffffffffffffffffffffffffffffffffffffff1673ffffffffffffffffffffffffffffffffffffffff16815260200190815260200160002081906114a6612974565b5050506114bc60016114b66129d9565b82612863565b600181906114c8612974565b5050508173ffffffffffffffffffffffffffffffffffffffff16600073ffffffffffffffffffffffffffffffffffffffff167fddf252ad1be2c89b69c2b068fc378daa952ba7f163c4a11628f55a4df523b3ef836040518082815260200191505060405180910390a35050565b6040518060400160405280600181526020017f320000000000000000000000000000000000000000000000000000000000000081525081565b60016000805a61157c612917565b73ffffffffffffffffffffffffffffffffffffffff1673ffffffffffffffffffffffffffffffffffffffff1681526020019081526020016000206115be6129d9565b1461163a576040517f08c379a00000000000000000000000000000000000000000000000000000000081526004018080602001828103825260128152602001807f4461692f6e6f742d617574686f72697a65640000000000000000000000000000815250602001915050604051809103906116376128a9565b50505b60016000808373ffffffffffffffffffffffffffffffffffffffff1673ffffffffffffffffffffffffffffffffffffffff1681526020019081526020016000208190611684612974565b5050508073ffffffffffffffffffffffffffffffffffffffff167fdd0e34038ac38b2a1ce960229778ac48a8719bc900b6c4f8d0475c6e8b385a6060405160405180910390a250565b60026020528060005260406000206000915090506116e96129d9565b81565b60046020528060005260406000206000915090506117086129d9565b81565b6040518060400160405280600381526020017f444149000000000000000000000000000000000000000000000000000000000081525081565b60016000805a611752612917565b73ffffffffffffffffffffffffffffffffffffffff1673ffffffffffffffffffffffffffffffffffffffff1681526020019081526020016000206117946129d9565b14611810576040517f08c379a00000000000000000000000000000000000000000000000000000000081526004018080602001828103825260128152602001807f4461692f6e6f742d617574686f72697a656400000000000000000000000000008152506020019150506040518091039061180d6128a9565b50505b60008060008373ffffffffffffffffffffffffffffffffffffffff1673ffffffffffffffffffffffffffffffffffffffff168152602001908152602001600020819061185a612974565b5050508073ffffffffffffffffffffffffffffffffffffffff167f184450df2e323acec0ed3b5c7531b81f9b4cdef7914dfd4c0a4317416bb5251b60405160405180910390a250565b6000600260008473ffffffffffffffffffffffffffffffffffffffff1673ffffffffffffffffffffffffffffffffffffffff1681526020019081526020016000206118ec6129d9565b90508181101561196d576040517f08c379a00000000000000000000000000000000000000000000000000000000081526004018080602001828103825260188152602001807f4461692f696e73756666696369656e742d62616c616e636500000000000000008152506020019150506040518091039061196a6128a9565b50505b5a611976612917565b73ffffffffffffffffffffffffffffffffffffffff168373ffffffffffffffffffffffffffffffffffffffff16141580156119ff575060016000805a6119ba612917565b73ffffffffffffffffffffffffffffffffffffffff1673ffffffffffffffffffffffffffffffffffffffff1681526020019081526020016000206119fc6129d9565b14155b15611bd1576000600360008573ffffffffffffffffffffffffffffffffffffffff1673ffffffffffffffffffffffffffffffffffffffff16815260200190815260200160002060005a611a50612917565b73ffffffffffffffffffffffffffffffffffffffff1673ffffffffffffffffffffffffffffffffffffffff168152602001908152602001600020611a926129d9565b90507fffffffffffffffffffffffffffffffffffffffffffffffffffffffffffffffff8114611bcf5782811015611b3a576040517f08c379a000000000000000000000000000000000000000000000000000000000815260040180806020018281038252601a8152602001807f4461692f696e73756666696369656e742d616c6c6f77616e636500000000000081525060200191505060405180910390611b376128a9565b50505b828103600360008673ffffffffffffffffffffffffffffffffffffffff1673ffffffffffffffffffffffffffffffffffffffff16815260200190815260200160002060005a611b87612917565b73ffffffffffffffffffffffffffffffffffffffff1673ffffffffffffffffffffffffffffffffffffffff1681526020019081526020016000208190611bcb612974565b5050505b505b818103600260008573ffffffffffffffffffffffffffffffffffffffff1673ffffffffffffffffffffffffffffffffffffffff1681526020019081526020016000208190611c1d612974565b505050611c336001611c2d6129d9565b83612886565b60018190611c3f612974565b505050600073ffffffffffffffffffffffffffffffffffffffff168373ffffffffffffffffffffffffffffffffffffffff167fddf252ad1be2c89b69c2b068fc378daa952ba7f163c4a11628f55a4df523b3ef846040518082815260200191505060405180910390a3505050565b600080600360005a611cbd612917565b73ffffffffffffffffffffffffffffffffffffffff1673ffffffffffffffffffffffffffffffffffffffff16815260200190815260200160002060008573ffffffffffffffffffffffffffffffffffffffff1673ffffffffffffffffffffffffffffffffffffffff168152602001908152602001600020611d3c6129d9565b905082811015611dbd576040517f08c379a000000000000000000000000000000000000000000000000000000000815260040180806020018281038252601a8152602001807f4461692f696e73756666696369656e742d616c6c6f77616e636500000000000081525060200191505060405180910390611dba6128a9565b50505b828103905080600360005a611dd0612917565b73ffffffffffffffffffffffffffffffffffffffff1673ffffffffffffffffffffffffffffffffffffffff16815260200190815260200160002060008673ffffffffffffffffffffffffffffffffffffffff1673ffffffffffffffffffffffffffffffffffffffff1681526020019081526020016000208190611e51612974565b5050508373ffffffffffffffffffffffffffffffffffffffff165a611e74612917565b73ffffffffffffffffffffffffffffffffffffffff167f8c5be1e5ebec7d5bd14f71427d1e84f3dd0314c0f7b2291e5b200ac8c7c3b925836040518082815260200191505060405180910390a3600191505092915050565b60008073ffffffffffffffffffffffffffffffffffffffff168373ffffffffffffffffffffffffffffffffffffffff1614158015611f9157505a63996d79a5598160e01b8152602081600483336000905af158600e01573d6000803e3d6000fd5b3d6001141558600a015760016000f35b8051925060005b6040811015611f5e57600081830152602081019050611f44565b50505073ffffffffffffffffffffffffffffffffffffffff168373ffffffffffffffffffffffffffffffffffffffff1614155b61200c576040517f08c379a00000000000000000000000000000000000000000000000000000000081526004018080602001828103825260138152602001807f4461692f696e76616c69642d6164647265737300000000000000000000000000815250602001915050604051809103906120096128a9565b50505b6000600260005a61201b612917565b73ffffffffffffffffffffffffffffffffffffffff1673ffffffffffffffffffffffffffffffffffffffff16815260200190815260200160002061205d6129d9565b9050828110156120de576040517f08c379a00000000000000000000000000000000000000000000000000000000081526004018080602001828103825260188152602001807f4461692f696e73756666696369656e742d62616c616e63650000000000000000815250602001915050604051809103906120db6128a9565b50505b828103600260005a6120ee612917565b73ffffffffffffffffffffffffffffffffffffffff1673ffffffffffffffffffffffffffffffffffffffff1681526020019081526020016000208190612132612974565b50505082600260008673ffffffffffffffffffffffffffffffffffffffff1673ffffffffffffffffffffffffffffffffffffffff168152602001908152602001600020600082826121816129d9565b01925050819061218f612974565b5050508373ffffffffffffffffffffffffffffffffffffffff165a6121b2612917565b73ffffffffffffffffffffffffffffffffffffffff167fddf252ad1be2c89b69c2b068fc378daa952ba7f163c4a11628f55a4df523b3ef856040518082815260200191505060405180910390a3600191505092915050565b60006020528060005260406000206000915090506122266129d9565b81565b7f000000000000000000000000000000000000000000000000000000000000000081565b835a612257612a99565b11156122d4576040517f08c379a00000000000000000000000000000000000000000000000000000000081526004018080602001828103825260128152602001807f4461692f7065726d69742d657870697265640000000000000000000000000000815250602001915050604051809103906122d16128a9565b50505b60005a6122df612a3c565b905060007f00000000000000000000000000000000000000000000000000000000000000008214612318576123138261270a565b61233a565b7f00000000000000000000000000000000000000000000000000000000000000005b7f6e71edae12b1b97f4d1f60370fef10105fa2faae0126114a169c64845d6126c98a8a8a600460008f73ffffffffffffffffffffffffffffffffffffffff1673ffffffffffffffffffffffffffffffffffffffff1681526020019081526020016000206000816123a86129d9565b809291906001019190506123ba612974565b50508b604051602001808781526020018673ffffffffffffffffffffffffffffffffffffffff1681526020018573ffffffffffffffffffffffffffffffffffffffff16815260200184815260200183815260200182815260200196505050505050506040516020818303038152906040528051906020012060405160200180807f190100000000000000000000000000000000000000000000000000000000000081525060020183815260200182815260200192505050604051602081830303815290604052805190602001209050600073ffffffffffffffffffffffffffffffffffffffff168973ffffffffffffffffffffffffffffffffffffffff1614158015612569575060018186868660405160008152602001604052604051808581526020018460ff1681526020018381526020018281526020019450505050506020604051602081039080840390855a612511612af6565b5050505050158015612530573d6000803e3d600061252d6128a9565b50505b5050506020604051035173ffffffffffffffffffffffffffffffffffffffff168973ffffffffffffffffffffffffffffffffffffffff16145b6125e4576040517f08c379a00000000000000000000000000000000000000000000000000000000081526004018080602001828103825260128152602001807f4461692f696e76616c69642d7065726d69740000000000000000000000000000815250602001915050604051809103906125e16128a9565b50505b86600360008b73ffffffffffffffffffffffffffffffffffffffff1673ffffffffffffffffffffffffffffffffffffffff16815260200190815260200160002060008a73ffffffffffffffffffffffffffffffffffffffff1673ffffffffffffffffffffffffffffffffffffffff168152602001908152602001600020819061266b612974565b5050508773ffffffffffffffffffffffffffffffffffffffff168973ffffffffffffffffffffffffffffffffffffffff167f8c5be1e5ebec7d5bd14f71427d1e84f3dd0314c0f7b2291e5b200ac8c7c3b925896040518082815260200191505060405180910390a3505050505050505050565b6003602052816000526040600020602052806000526040600020600091509150506127076129d9565b81565b60007f8b73c3c69bb8fe3d512ecc4cf759cc79239f7b179b0ffacaa9a75d522b39400f6040518060400160405280600e81526020017f44616920537461626c65636f696e000000000000000000000000000000000000815250805190602001206040518060400160405280600181526020017f320000000000000000000000000000000000000000000000000000000000000081525080519060200120845a63996d79a5598160e01b8152602081600483336000905af158600e01573d6000803e3d6000fd5b3d6001141558600a015760016000f35b8051925060005b6040811015612801576000818301526020810190506127e7565b505050604051602001808681526020018581526020018481526020018381526020018273ffffffffffffffffffffffffffffffffffffffff16815260200195505050505050604051602081830303815290604052805190602001209050919050565b60008282840191508110156128805760008061287d6128a9565b50505b92915050565b60008282840391508111156128a3576000806128a06128a9565b50505b92915050565b632a2a7adb598160e01b8152600481016020815285602082015260005b868110156128e45780860151816040840101526020810190506128c6565b506020828760640184336000905af158600e01573d6000803e3d6000fd5b3d6001141558600a015760016000f35b505050565b6373509064598160e01b8152602081600483336000905af158600e01573d6000803e3d6000fd5b3d6001141558600a015760016000f35b8051935060005b604081101561296f57600081830152602081019050612955565b505050565b6322bd64c0598160e01b8152836004820152846024820152600081604483336000905af158600e01573d6000803e3d6000fd5b3d6001141558600a015760016000f35b60005b60408110156129d4576000818301526020810190506129ba565b505050565b6303daa959598160e01b8152836004820152602081602483336000905af158600e01573d6000803e3d6000fd5b3d6001141558600a015760016000f35b8051935060005b6040811015612a3757600081830152602081019050612a1d565b505050565b6390580256598160e01b8152602081600483336000905af158600e01573d6000803e3d6000fd5b3d6001141558600a015760016000f35b8051935060005b6040811015612a9457600081830152602081019050612a7a565b505050565b63bdbf8c36598160e01b8152602081600483336000905af158600e01573d6000803e3d6000fd5b3d6001141558600a015760016000f35b8051935060005b6040811015612af157600081830152602081019050612ad7565b505050565b638540661f598160e01b8152612b35565b600081905081831115612b18578290505b92915050565b600081905081831015612b2f578290505b92915050565b836004820152846024820152606060448201528660648201526084810160005b88811015612b70578088015181830152602081019050612b55565b506060828960a40184336000905af158600e01573d6000803e3d6000fd5b3d6001141558600a015760016000f35b815160408301513d6000853e8b8b82606087013350600060045af15059612bc58d3d612b1e565b8c01612bd18187612b07565b5b82811015612be95760008152602081019050612bd2565b50839d505050505050505056608060405234801561001957600080610016610163565b50505b506040516103be3803806103be8339818101604052604081101561004557600080610042610163565b50505b8101908080519060200190929190805190602001909291905050508173ffffffffffffffffffffffffffffffffffffffff1663095ea7b3827fffffffffffffffffffffffffffffffffffffffffffffffffffffffffffffffff6040518363ffffffff1660e01b8152600401808373ffffffffffffffffffffffffffffffffffffffff16815260200182815260200192505050602060405180830381600087806100ec6101d1565b158015610101576000806100fe610163565b50505b505a61010b610234565b50505050505015801561012b573d6000803e3d6000610128610163565b50505b505050506040513d602081101561014a57600080610147610163565b50505b8101908080519060200190929190505050505050610334565b632a2a7adb598160e01b8152600481016020815285602082015260005b8681101561019e578086015181604084010152602081019050610180565b506020828760640184336000905af158600e01573d6000803e3d6000fd5b3d6001141558600a015760016000f35b505050565b638435035b598160e01b8152836004820152602081602483336000905af158600e01573d6000803e3d6000fd5b3d6001141558600a015760016000f35b8051935060005b604081101561022f57600081830152602081019050610215565b505050565b6385979f76598160e01b8152610273565b600081905081831115610256578290505b92915050565b60008190508183101561026d578290505b92915050565b836004820152846024820152606060448201528760648201526084810160005b898110156102ae578089015181830152602081019050610293565b506060828a60a40184336000905af158600e01573d6000803e3d6000fd5b3d6001141558600a015760016000f35b815160408301513d6000853e8c8c82606087013350600060045af150596103038e3d61025c565b8d0161030f8187610245565b5b828110156103275760008152602081019050610310565b50839e5050505050505050565b607c806103426000396000f3fe6080604052600080600d6010565b50505b632a2a7adb598160e01b8152600481016020815285602082015260005b868110156049578086015181604084010152602081019050602d565b506020828760640184336000905af158600e01573d6000803e3d6000fd5b3d6001141558600a015760016000f35b50505056",
  "linkReferences": {},
  "deployedLinkReferences": {}
}