{
  "_format": "hh-sol-artifact-1",
  "contractName": "L2GovernanceRelay",
  "sourceName": "contracts/l2/L2GovernanceRelay.sol",
  "abi": [
    {
      "inputs": [
        {
          "internalType": "address",
          "name": "_l2CrossDomainMessenger",
          "type": "address"
        },
        {
          "internalType": "address",
          "name": "_l1GovernanceRelay",
          "type": "address"
        }
      ],
      "stateMutability": "nonpayable",
      "type": "constructor"
    },
    {
      "inputs": [],
      "name": "l1GovernanceRelay",
      "outputs": [
        {
          "internalType": "address",
          "name": "",
          "type": "address"
        }
      ],
      "stateMutability": "view",
      "type": "function"
    },
    {
      "inputs": [],
      "name": "messenger",
      "outputs": [
        {
          "internalType": "address",
          "name": "",
          "type": "address"
        }
      ],
      "stateMutability": "view",
      "type": "function"
    },
    {
      "inputs": [
        {
          "internalType": "address",
          "name": "target",
          "type": "address"
        },
        {
          "internalType": "bytes",
          "name": "targetData",
          "type": "bytes"
        }
      ],
      "name": "relay",
      "outputs": [],
      "stateMutability": "nonpayable",
      "type": "function"
    }
  ],
  "bytecode": "0x60a0604052348015610019576000806100166100f0565b50505b50604051610c49380380610c4983398181016040526040811015610045576000806100426100f0565b50505b81019080805190602001909291908051906020019092919050505081806000806101000a8161007261015e565b8173ffffffffffffffffffffffffffffffffffffffff021916908373ffffffffffffffffffffffffffffffffffffffff160217906100ae6101c1565b505050508073ffffffffffffffffffffffffffffffffffffffff1660808173ffffffffffffffffffffffffffffffffffffffff1660601b815250505050610226565b632a2a7adb598160e01b8152600481016020815285602082015260005b8681101561012b57808601518160408401015260208101905061010d565b506020828760640184336000905af158600e01573d6000803e3d6000fd5b3d6001141558600a015760016000f35b505050565b6303daa959598160e01b8152836004820152602081602483336000905af158600e01573d6000803e3d6000fd5b3d6001141558600a015760016000f35b8051935060005b60408110156101bc576000818301526020810190506101a2565b505050565b6322bd64c0598160e01b8152836004820152846024820152600081604483336000905af158600e01573d6000803e3d6000fd5b3d6001141558600a015760016000f35b60005b604081101561022157600081830152602081019050610207565b505050565b60805160601c610a01610248600039806101aa52806101ce5250610a016000f3fe6080604052348015610019576000806100166105c5565b50505b506004361061004a5760003560e01c80633cb747bf146100585780635892807d1461008c578063c28e83fd146100c0575b6000806100556105c5565b50505b61006061017d565b604051808273ffffffffffffffffffffffffffffffffffffffff16815260200191505060405180910390f35b6100946101a8565b604051808273ffffffffffffffffffffffffffffffffffffffff16815260200191505060405180910390f35b61017b600480360360408110156100df576000806100dc6105c5565b50505b81019080803573ffffffffffffffffffffffffffffffffffffffff16906020019092919080359060200190640100000000811115610125576000806101226105c5565b50505b8201836020820111156101405760008061013d6105c5565b50505b8035906020019184600183028401116401000000008311171561016b576000806101686105c5565b50505b90919293919293905050506101cc565b005b600080610188610633565b906101000a900473ffffffffffffffffffffffffffffffffffffffff1681565b7f000000000000000000000000000000000000000000000000000000000000000081565b7f00000000000000000000000000000000000000000000000000000000000000006101f5610595565b73ffffffffffffffffffffffffffffffffffffffff165a610214610696565b73ffffffffffffffffffffffffffffffffffffffff1614610289576040517f08c379a000000000000000000000000000000000000000000000000000000000815260040180806020018281038252602e81526020018061097b602e9139604001915050604051809103906102866105c5565b50505b8073ffffffffffffffffffffffffffffffffffffffff166102a8610595565b73ffffffffffffffffffffffffffffffffffffffff16636e296e456040518163ffffffff1660e01b815260040160206040518083038186806102e86106f3565b1580156102fd576000806102fa6105c5565b50505b505a610307610756565b5050505050158015610326573d6000803e3d60006103236105c5565b50505b505050506040513d6020811015610345576000806103426105c5565b50505b810190808051906020019092919050505073ffffffffffffffffffffffffffffffffffffffff16146103cb576040517f08c379a00000000000000000000000000000000000000000000000000000000081526004018080602001828103825260308152602001806109d160309139604001915050604051809103906103c86105c5565b50505b6000806000906103d9610633565b906101000a900473ffffffffffffffffffffffffffffffffffffffff16905060008573ffffffffffffffffffffffffffffffffffffffff168585604051808383808284378083019250505092505050600060405180830381855a61043b610856565b50505050509150503d806000811461046f576040519150601f19603f3d011682016040523d82523d6000602084013e610474565b606091505b505080915050806104d9576040517f08c379a000000000000000000000000000000000000000000000000000000000815260040180806020018281038252602481526020018061095760249139604001915050604051809103906104d66105c5565b50505b6000806104e4610633565b906101000a900473ffffffffffffffffffffffffffffffffffffffff1673ffffffffffffffffffffffffffffffffffffffff168273ffffffffffffffffffffffffffffffffffffffff161461058d576040517f08c379a00000000000000000000000000000000000000000000000000000000081526004018080602001828103825260288152602001806109a9602891396040019150506040518091039061058a6105c5565b50505b505050505050565b6000806000906105a3610633565b906101000a900473ffffffffffffffffffffffffffffffffffffffff16905090565b632a2a7adb598160e01b8152600481016020815285602082015260005b868110156106005780860151816040840101526020810190506105e2565b506020828760640184336000905af158600e01573d6000803e3d6000fd5b3d6001141558600a015760016000f35b505050565b6303daa959598160e01b8152836004820152602081602483336000905af158600e01573d6000803e3d6000fd5b3d6001141558600a015760016000f35b8051935060005b604081101561069157600081830152602081019050610677565b505050565b6373509064598160e01b8152602081600483336000905af158600e01573d6000803e3d6000fd5b3d6001141558600a015760016000f35b8051935060005b60408110156106ee576000818301526020810190506106d4565b505050565b638435035b598160e01b8152836004820152602081602483336000905af158600e01573d6000803e3d6000fd5b3d6001141558600a015760016000f35b8051935060005b604081101561075157600081830152602081019050610737565b505050565b638540661f598160e01b8152610795565b600081905081831115610778578290505b92915050565b60008190508183101561078f578290505b92915050565b836004820152846024820152606060448201528660648201526084810160005b888110156107d05780880151818301526020810190506107b5565b506060828960a40184336000905af158600e01573d6000803e3d6000fd5b3d6001141558600a015760016000f35b815160408301513d6000853e8b8b82606087013350600060045af150596108258d3d61077e565b8c016108318187610767565b5b828110156108495760008152602081019050610832565b50839d5050505050505050565b63ffe73914598160e01b8152610895565b600081905081831115610878578290505b92915050565b60008190508183101561088f578290505b92915050565b836004820152846024820152606060448201528660648201526084810160005b888110156108d05780880151818301526020810190506108b5565b506060828960a40184336000905af158600e01573d6000803e3d6000fd5b3d6001141558600a015760016000f35b815160408301513d6000853e8b8b82606087013350600060045af150596109258d3d61087e565b8c016109318187610867565b5b828110156109495760008152602081019050610932565b50839d505050505050505056fe4c32476f7665726e616e636552656c61792f64656c656761746563616c6c2d6572726f724f564d5f58434841494e3a206d657373656e67657220636f6e747261637420756e61757468656e746963617465644c32476f7665726e616e636552656c61792f696c6c6567616c2d73746f726167652d6368616e67654f564d5f58434841494e3a2077726f6e672073656e646572206f662063726f73732d646f6d61696e206d657373616765",
  "linkReferences": {},
  "deployedLinkReferences": {}
}