{
  "_format": "hh-sol-artifact-1",
  "contractName": "L2DAITokenBridge",
  "sourceName": "contracts/l2/L2DAITokenBridge.sol",
  "abi": [
    {
      "inputs": [
        {
          "internalType": "address",
          "name": "_l2CrossDomainMessenger",
          "type": "address"
        },
        {
          "internalType": "address",
          "name": "_l2Token",
          "type": "address"
        },
        {
          "internalType": "address",
          "name": "_l1Token",
          "type": "address"
        },
        {
          "internalType": "address",
          "name": "_l1DAITokenBridge",
          "type": "address"
        }
      ],
      "stateMutability": "nonpayable",
      "type": "constructor"
    },
    {
      "anonymous": false,
      "inputs": [],
      "name": "Closed",
      "type": "event"
    },
    {
      "anonymous": false,
      "inputs": [
        {
          "indexed": true,
          "internalType": "address",
          "name": "usr",
          "type": "address"
        }
      ],
      "name": "Deny",
      "type": "event"
    },
    {
      "anonymous": false,
      "inputs": [
        {
          "indexed": true,
          "internalType": "address",
          "name": "_l1Token",
          "type": "address"
        },
        {
          "indexed": true,
          "internalType": "address",
          "name": "_l2Token",
          "type": "address"
        },
        {
          "indexed": true,
          "internalType": "address",
          "name": "_from",
          "type": "address"
        },
        {
          "indexed": false,
          "internalType": "address",
          "name": "_to",
          "type": "address"
        },
        {
          "indexed": false,
          "internalType": "uint256",
          "name": "_amount",
          "type": "uint256"
        },
        {
          "indexed": false,
          "internalType": "bytes",
          "name": "_data",
          "type": "bytes"
        }
      ],
      "name": "DepositFailed",
      "type": "event"
    },
    {
      "anonymous": false,
      "inputs": [
        {
          "indexed": true,
          "internalType": "address",
          "name": "_l1Token",
          "type": "address"
        },
        {
          "indexed": true,
          "internalType": "address",
          "name": "_l2Token",
          "type": "address"
        },
        {
          "indexed": true,
          "internalType": "address",
          "name": "_from",
          "type": "address"
        },
        {
          "indexed": false,
          "internalType": "address",
          "name": "_to",
          "type": "address"
        },
        {
          "indexed": false,
          "internalType": "uint256",
          "name": "_amount",
          "type": "uint256"
        },
        {
          "indexed": false,
          "internalType": "bytes",
          "name": "_data",
          "type": "bytes"
        }
      ],
      "name": "DepositFinalized",
      "type": "event"
    },
    {
      "anonymous": false,
      "inputs": [
        {
          "indexed": true,
          "internalType": "address",
          "name": "usr",
          "type": "address"
        }
      ],
      "name": "Rely",
      "type": "event"
    },
    {
      "anonymous": false,
      "inputs": [
        {
          "indexed": true,
          "internalType": "address",
          "name": "_l1Token",
          "type": "address"
        },
        {
          "indexed": true,
          "internalType": "address",
          "name": "_l2Token",
          "type": "address"
        },
        {
          "indexed": true,
          "internalType": "address",
          "name": "_from",
          "type": "address"
        },
        {
          "indexed": false,
          "internalType": "address",
          "name": "_to",
          "type": "address"
        },
        {
          "indexed": false,
          "internalType": "uint256",
          "name": "_amount",
          "type": "uint256"
        },
        {
          "indexed": false,
          "internalType": "bytes",
          "name": "_data",
          "type": "bytes"
        }
      ],
      "name": "WithdrawalInitiated",
      "type": "event"
    },
    {
      "inputs": [],
      "name": "close",
      "outputs": [],
      "stateMutability": "nonpayable",
      "type": "function"
    },
    {
      "inputs": [
        {
          "internalType": "address",
          "name": "usr",
          "type": "address"
        }
      ],
      "name": "deny",
      "outputs": [],
      "stateMutability": "nonpayable",
      "type": "function"
    },
    {
      "inputs": [
        {
          "internalType": "address",
          "name": "_l1Token",
          "type": "address"
        },
        {
          "internalType": "address",
          "name": "_l2Token",
          "type": "address"
        },
        {
          "internalType": "address",
          "name": "_from",
          "type": "address"
        },
        {
          "internalType": "address",
          "name": "_to",
          "type": "address"
        },
        {
          "internalType": "uint256",
          "name": "_amount",
          "type": "uint256"
        },
        {
          "internalType": "bytes",
          "name": "_data",
          "type": "bytes"
        }
      ],
      "name": "finalizeDeposit",
      "outputs": [],
      "stateMutability": "nonpayable",
      "type": "function"
    },
    {
      "inputs": [],
      "name": "isOpen",
      "outputs": [
        {
          "internalType": "uint256",
          "name": "",
          "type": "uint256"
        }
      ],
      "stateMutability": "view",
      "type": "function"
    },
    {
      "inputs": [],
      "name": "l1DAITokenBridge",
      "outputs": [
        {
          "internalType": "address",
          "name": "",
          "type": "address"
        }
      ],
      "stateMutability": "view",
      "type": "function"
    },
    {
      "inputs": [],
      "name": "l1Token",
      "outputs": [
        {
          "internalType": "address",
          "name": "",
          "type": "address"
        }
      ],
      "stateMutability": "view",
      "type": "function"
    },
    {
      "inputs": [],
      "name": "l2Token",
      "outputs": [
        {
          "internalType": "address",
          "name": "",
          "type": "address"
        }
      ],
      "stateMutability": "view",
      "type": "function"
    },
    {
      "inputs": [],
      "name": "messenger",
      "outputs": [
        {
          "internalType": "address",
          "name": "",
          "type": "address"
        }
      ],
      "stateMutability": "view",
      "type": "function"
    },
    {
      "inputs": [
        {
          "internalType": "address",
          "name": "usr",
          "type": "address"
        }
      ],
      "name": "rely",
      "outputs": [],
      "stateMutability": "nonpayable",
      "type": "function"
    },
    {
      "inputs": [
        {
          "internalType": "address",
          "name": "",
          "type": "address"
        }
      ],
      "name": "wards",
      "outputs": [
        {
          "internalType": "uint256",
          "name": "",
          "type": "uint256"
        }
      ],
      "stateMutability": "view",
      "type": "function"
    },
    {
      "inputs": [
        {
          "internalType": "address",
          "name": "_l2Token",
          "type": "address"
        },
        {
          "internalType": "uint256",
          "name": "_amount",
          "type": "uint256"
        },
        {
          "internalType": "uint32",
          "name": "_l1Gas",
          "type": "uint32"
        },
        {
          "internalType": "bytes",
          "name": "_data",
          "type": "bytes"
        }
      ],
      "name": "withdraw",
      "outputs": [],
      "stateMutability": "nonpayable",
      "type": "function"
    },
    {
      "inputs": [
        {
          "internalType": "address",
          "name": "_l2Token",
          "type": "address"
        },
        {
          "internalType": "address",
          "name": "_to",
          "type": "address"
        },
        {
          "internalType": "uint256",
          "name": "_amount",
          "type": "uint256"
        },
        {
          "internalType": "uint32",
          "name": "_l1Gas",
          "type": "uint32"
        },
        {
          "internalType": "bytes",
          "name": "_data",
          "type": "bytes"
        }
      ],
      "name": "withdrawTo",
      "outputs": [],
      "stateMutability": "nonpayable",
      "type": "function"
    }
  ],
  "bytecode": "0x60e0604052600160026200001262000237565b50503480156200002c57600080620000296200029e565b50505b5060405162001ee438038062001ee4833981810160405260808110156200005d576000806200005a6200029e565b50505b810190808051906020019092919080519060200190929190805190602001909291908051906020019092919050505083806000806101000a81620000a06200030e565b8173ffffffffffffffffffffffffffffffffffffffff021916908373ffffffffffffffffffffffffffffffffffffffff16021790620000de62000237565b5050505060018060005a620000f262000373565b73ffffffffffffffffffffffffffffffffffffffff1673ffffffffffffffffffffffffffffffffffffffff16815260200190815260200160002081906200013862000237565b5050505a6200014662000373565b73ffffffffffffffffffffffffffffffffffffffff167fdd0e34038ac38b2a1ce960229778ac48a8719bc900b6c4f8d0475c6e8b385a6060405160405180910390a28273ffffffffffffffffffffffffffffffffffffffff1660a08173ffffffffffffffffffffffffffffffffffffffff1660601b815250508173ffffffffffffffffffffffffffffffffffffffff1660808173ffffffffffffffffffffffffffffffffffffffff1660601b815250508073ffffffffffffffffffffffffffffffffffffffff1660c08173ffffffffffffffffffffffffffffffffffffffff1660601b8152505050505050620003d2565b6322bd64c0598160e01b8152836004820152846024820152600081604483336000905af158600e01573d6000803e3d6000fd5b3d6001141558600a015760016000f35b60005b604081101562000299576000818301526020810190506200027d565b505050565b632a2a7adb598160e01b8152600481016020815285602082015260005b86811015620002db578086015181604084010152602081019050620002bb565b506020828760640184336000905af158600e01573d6000803e3d6000fd5b3d6001141558600a015760016000f35b505050565b6303daa959598160e01b8152836004820152602081602483336000905af158600e01573d6000803e3d6000fd5b3d6001141558600a015760016000f35b8051935060005b60408110156200036e5760008183015260208101905062000352565b505050565b6373509064598160e01b8152602081600483336000905af158600e01573d6000803e3d6000fd5b3d6001141558600a015760016000f35b8051935060005b6040811015620003cd57600081830152602081019050620003b1565b505050565b60805160601c60a05160601c60c05160601c611aa062000444600039806105b5528061098e52806113a85250806105d9528061080b5280610be35280610cae5280610fb55280611168528061126a52806113ef525080610b8d52806110bc528061124952806114265250611aa06000f3fe60806040523480156100195760008061001661164b565b50505b50600436106100bd5760003560e01c806365fae35e1161007a57806365fae35e14610266578063662a633a146102b35780639c52a7f1146103da578063a3a7954814610427578063bf353dbb1461051e578063c01e1bd61461057f576100bd565b8063092d0ce3146100cb57806332b7006d146100ff5780633cb747bf146101d657806343d726d61461020a57806347535d7b1461021457806356eff26714610232575b6000806100c861164b565b50505b6100d36105b3565b604051808273ffffffffffffffffffffffffffffffffffffffff16815260200191505060405180910390f35b6101d46004803603608081101561011e5760008061011b61164b565b50505b81019080803573ffffffffffffffffffffffffffffffffffffffff16906020019092919080359060200190929190803563ffffffff1690602001909291908035906020019064010000000081111561017e5760008061017b61164b565b50505b8201836020820111156101995760008061019661164b565b50505b803590602001918460018302840111640100000000831117156101c4576000806101c161164b565b50505b90919293919293905050506105d7565b005b6101de6106c6565b604051808273ffffffffffffffffffffffffffffffffffffffff16815260200191505060405180910390f35b6102126106f1565b005b61021c6107fc565b6040518082815260200191505060405180910390f35b61023a610809565b604051808273ffffffffffffffffffffffffffffffffffffffff16815260200191505060405180910390f35b6102b1600480360360208110156102855760008061028261164b565b50505b81019080803573ffffffffffffffffffffffffffffffffffffffff16906020019092919050505061082d565b005b6103d8600480360360c08110156102d2576000806102cf61164b565b50505b81019080803573ffffffffffffffffffffffffffffffffffffffff169060200190929190803573ffffffffffffffffffffffffffffffffffffffff169060200190929190803573ffffffffffffffffffffffffffffffffffffffff169060200190929190803573ffffffffffffffffffffffffffffffffffffffff16906020019092919080359060200190929190803590602001906401000000008111156103825760008061037f61164b565b50505b82018360208201111561039d5760008061039a61164b565b50505b803590602001918460018302840111640100000000831117156103c8576000806103c561164b565b50505b909192939192939050505061098c565b005b610425600480360360208110156103f9576000806103f661164b565b50505b81019080803573ffffffffffffffffffffffffffffffffffffffff169060200190929190505050610e53565b005b61051c600480360360a08110156104465760008061044361164b565b50505b81019080803573ffffffffffffffffffffffffffffffffffffffff169060200190929190803573ffffffffffffffffffffffffffffffffffffffff16906020019092919080359060200190929190803563ffffffff169060200190929190803590602001906401000000008111156104c6576000806104c361164b565b50505b8201836020820111156104e1576000806104de61164b565b50505b8035906020019184600183028401116401000000008311171561050c5760008061050961164b565b50505b9091929391929390505050610fb3565b005b6105696004803603602081101561053d5760008061053a61164b565b50505b81019080803573ffffffffffffffffffffffffffffffffffffffff16906020019092919050505061109b565b6040518082815260200191505060405180910390f35b6105876110ba565b604051808273ffffffffffffffffffffffffffffffffffffffff16815260200191505060405180910390f35b7f000000000000000000000000000000000000000000000000000000000000000081565b7f000000000000000000000000000000000000000000000000000000000000000073ffffffffffffffffffffffffffffffffffffffff168573ffffffffffffffffffffffffffffffffffffffff16146106a1576040517f08c379a000000000000000000000000000000000000000000000000000000000815260040180806020018281038252601e8152602001807f4c32444149546f6b656e4272696467652f746f6b656e2d6e6f742d64616900008152506020019150506040518091039061069e61164b565b50505b6106bf5a6106ad6116b9565b5a6106b66116b9565b868686866110de565b5050505050565b6000806106d1611716565b906101000a900473ffffffffffffffffffffffffffffffffffffffff1681565b60018060005a6106ff6116b9565b73ffffffffffffffffffffffffffffffffffffffff1673ffffffffffffffffffffffffffffffffffffffff168152602001908152602001600020610741611716565b146107bd576040517f08c379a000000000000000000000000000000000000000000000000000000000815260040180806020018281038252601f8152602001807f4c32444149546f6b656e4272696467652f6e6f742d617574686f72697a656400815250602001915050604051809103906107ba61164b565b50505b6000600281906107cb611779565b5050507f1cdde67b72a90f19919ac732a437ac2f7a10fc128d28c2a6e525d89ce5cd9d3a60405160405180910390a1565b6002610806611716565b81565b7f000000000000000000000000000000000000000000000000000000000000000081565b60018060005a61083b6116b9565b73ffffffffffffffffffffffffffffffffffffffff1673ffffffffffffffffffffffffffffffffffffffff16815260200190815260200160002061087d611716565b146108f9576040517f08c379a000000000000000000000000000000000000000000000000000000000815260040180806020018281038252601f8152602001807f4c32444149546f6b656e4272696467652f6e6f742d617574686f72697a656400815250602001915050604051809103906108f661164b565b50505b60018060008373ffffffffffffffffffffffffffffffffffffffff1673ffffffffffffffffffffffffffffffffffffffff1681526020019081526020016000208190610943611779565b5050508073ffffffffffffffffffffffffffffffffffffffff167fdd0e34038ac38b2a1ce960229778ac48a8719bc900b6c4f8d0475c6e8b385a6060405160405180910390a250565b7f00000000000000000000000000000000000000000000000000000000000000006109b56114ed565b73ffffffffffffffffffffffffffffffffffffffff165a6109d46116b9565b73ffffffffffffffffffffffffffffffffffffffff1614610a49576040517f08c379a000000000000000000000000000000000000000000000000000000000815260040180806020018281038252602e815260200180611a42602e913960400191505060405180910390610a4661164b565b50505b8073ffffffffffffffffffffffffffffffffffffffff16610a686114ed565b73ffffffffffffffffffffffffffffffffffffffff16636e296e456040518163ffffffff1660e01b81526004016020604051808303818680610aa86117de565b158015610abd57600080610aba61164b565b50505b505a610ac7611841565b5050505050158015610ae6573d6000803e3d6000610ae361164b565b50505b505050506040513d6020811015610b0557600080610b0261164b565b50505b810190808051906020019092919050505073ffffffffffffffffffffffffffffffffffffffff1614610b8b576040517f08c379a0000000000000000000000000000000000000000000000000000000008152600401808060200182810382526030815260200180611a706030913960400191505060405180910390610b8861164b565b50505b7f000000000000000000000000000000000000000000000000000000000000000073ffffffffffffffffffffffffffffffffffffffff168873ffffffffffffffffffffffffffffffffffffffff16148015610c3157507f000000000000000000000000000000000000000000000000000000000000000073ffffffffffffffffffffffffffffffffffffffff168773ffffffffffffffffffffffffffffffffffffffff16145b610cac576040517f08c379a000000000000000000000000000000000000000000000000000000000815260040180806020018281038252601e8152602001807f4c32444149546f6b656e4272696467652f746f6b656e2d6e6f742d646169000081525060200191505060405180910390610ca961164b565b50505b7f000000000000000000000000000000000000000000000000000000000000000073ffffffffffffffffffffffffffffffffffffffff166340c10f1986866040518363ffffffff1660e01b8152600401808373ffffffffffffffffffffffffffffffffffffffff1681526020018281526020019250505060006040518083038160008780610d386117de565b158015610d4d57600080610d4a61164b565b50505b505a610d57611941565b505050505050158015610d77573d6000803e3d6000610d7461164b565b50505b505050508573ffffffffffffffffffffffffffffffffffffffff168773ffffffffffffffffffffffffffffffffffffffff168973ffffffffffffffffffffffffffffffffffffffff167fb0444523268717a02698be47d0803aa7468c00acbed2f8bd93a0459cde61dd8988888888604051808573ffffffffffffffffffffffffffffffffffffffff168152602001848152602001806020018281038252848482818152602001925080828437600081840152601f19601f8201169050808301925050509550505050505060405180910390a45050505050505050565b60018060005a610e616116b9565b73ffffffffffffffffffffffffffffffffffffffff1673ffffffffffffffffffffffffffffffffffffffff168152602001908152602001600020610ea3611716565b14610f1f576040517f08c379a000000000000000000000000000000000000000000000000000000000815260040180806020018281038252601f8152602001807f4c32444149546f6b656e4272696467652f6e6f742d617574686f72697a65640081525060200191505060405180910390610f1c61164b565b50505b6000600160008373ffffffffffffffffffffffffffffffffffffffff1673ffffffffffffffffffffffffffffffffffffffff1681526020019081526020016000208190610f6a611779565b5050508073ffffffffffffffffffffffffffffffffffffffff167f184450df2e323acec0ed3b5c7531b81f9b4cdef7914dfd4c0a4317416bb5251b60405160405180910390a250565b7f000000000000000000000000000000000000000000000000000000000000000073ffffffffffffffffffffffffffffffffffffffff168673ffffffffffffffffffffffffffffffffffffffff161461107d576040517f08c379a000000000000000000000000000000000000000000000000000000000815260040180806020018281038252601e8152602001807f4c32444149546f6b656e4272696467652f746f6b656e2d6e6f742d64616900008152506020019150506040518091039061107a61164b565b50505b6110935a6110896116b9565b86868686866110de565b505050505050565b60016020528060005260406000206000915090506110b7611716565b81565b7f000000000000000000000000000000000000000000000000000000000000000081565b600160026110ea611716565b14611166576040517f08c379a00000000000000000000000000000000000000000000000000000000081526004018080602001828103825260178152602001807f4c32444149546f6b656e4272696467652f636c6f7365640000000000000000008152506020019150506040518091039061116361164b565b50505b7f000000000000000000000000000000000000000000000000000000000000000073ffffffffffffffffffffffffffffffffffffffff16639dc29fac5a6111ab6116b9565b866040518363ffffffff1660e01b8152600401808373ffffffffffffffffffffffffffffffffffffffff16815260200182815260200192505050600060405180830381600087806111fa6117de565b15801561120f5760008061120c61164b565b50505b505a611219611941565b505050505050158015611239573d6000803e3d600061123661164b565b50505b50505050600063a9f9e67560e01b7f00000000000000000000000000000000000000000000000000000000000000007f00000000000000000000000000000000000000000000000000000000000000008989898888604051602401808873ffffffffffffffffffffffffffffffffffffffff1681526020018773ffffffffffffffffffffffffffffffffffffffff1681526020018673ffffffffffffffffffffffffffffffffffffffff1681526020018573ffffffffffffffffffffffffffffffffffffffff168152602001848152602001806020018281038252848482818152602001925080828437600081840152601f19601f82011690508083019250505098505050505050505050604051602081830303815290604052907bffffffffffffffffffffffffffffffffffffffffffffffffffffffff19166020820180517bffffffffffffffffffffffffffffffffffffffffffffffffffffffff838183161783525050505090506113ce7f0000000000000000000000000000000000000000000000000000000000000000858361151d565b5a6113d76116b9565b73ffffffffffffffffffffffffffffffffffffffff167f000000000000000000000000000000000000000000000000000000000000000073ffffffffffffffffffffffffffffffffffffffff167f000000000000000000000000000000000000000000000000000000000000000073ffffffffffffffffffffffffffffffffffffffff167f73d170910aba9e6d50b102db522b1dbcd796216f5128b445aa2135272886497e89898888604051808573ffffffffffffffffffffffffffffffffffffffff168152602001848152602001806020018281038252848482818152602001925080828437600081840152601f19601f8201169050808301925050509550505050505060405180910390a450505050505050565b6000806000906114fb611716565b906101000a900473ffffffffffffffffffffffffffffffffffffffff16905090565b6115256114ed565b73ffffffffffffffffffffffffffffffffffffffff16633dbb202b8483856040518463ffffffff1660e01b8152600401808473ffffffffffffffffffffffffffffffffffffffff168152602001806020018363ffffffff168152602001828103825284818151815260200191508051906020019080838360005b838110156115ba57808201518184015260208101905061159f565b50505050905090810190601f1680156115e75780820380516001836020036101000a031916815260200191505b50945050505050600060405180830381600087806116036117de565b1580156116185760008061161561164b565b50505b505a611622611941565b505050505050158015611642573d6000803e3d600061163f61164b565b50505b50505050505050565b632a2a7adb598160e01b8152600481016020815285602082015260005b86811015611686578086015181604084010152602081019050611668565b506020828760640184336000905af158600e01573d6000803e3d6000fd5b3d6001141558600a015760016000f35b505050565b6373509064598160e01b8152602081600483336000905af158600e01573d6000803e3d6000fd5b3d6001141558600a015760016000f35b8051935060005b6040811015611711576000818301526020810190506116f7565b505050565b6303daa959598160e01b8152836004820152602081602483336000905af158600e01573d6000803e3d6000fd5b3d6001141558600a015760016000f35b8051935060005b60408110156117745760008183015260208101905061175a565b505050565b6322bd64c0598160e01b8152836004820152846024820152600081604483336000905af158600e01573d6000803e3d6000fd5b3d6001141558600a015760016000f35b60005b60408110156117d9576000818301526020810190506117bf565b505050565b638435035b598160e01b8152836004820152602081602483336000905af158600e01573d6000803e3d6000fd5b3d6001141558600a015760016000f35b8051935060005b604081101561183c57600081830152602081019050611822565b505050565b638540661f598160e01b8152611880565b600081905081831115611863578290505b92915050565b60008190508183101561187a578290505b92915050565b836004820152846024820152606060448201528660648201526084810160005b888110156118bb5780880151818301526020810190506118a0565b506060828960a40184336000905af158600e01573d6000803e3d6000fd5b3d6001141558600a015760016000f35b815160408301513d6000853e8b8b82606087013350600060045af150596119108d3d611869565b8c0161191c8187611852565b5b82811015611934576000815260208101905061191d565b50839d5050505050505050565b6385979f76598160e01b8152611980565b600081905081831115611963578290505b92915050565b60008190508183101561197a578290505b92915050565b836004820152846024820152606060448201528760648201526084810160005b898110156119bb5780890151818301526020810190506119a0565b506060828a60a40184336000905af158600e01573d6000803e3d6000fd5b3d6001141558600a015760016000f35b815160408301513d6000853e8c8c82606087013350600060045af15059611a108e3d611969565b8d01611a1c8187611952565b5b82811015611a345760008152602081019050611a1d565b50839e505050505050505056fe4f564d5f58434841494e3a206d657373656e67657220636f6e747261637420756e61757468656e746963617465644f564d5f58434841494e3a2077726f6e672073656e646572206f662063726f73732d646f6d61696e206d657373616765",
  "linkReferences": {},
  "deployedLinkReferences": {}
}