{
  "_format": "hh-sol-artifact-1",
  "contractName": "BadSpell",
  "sourceName": "contracts/test/BadSpell.sol",
  "abi": [
    {
      "inputs": [],
      "name": "abort",
      "outputs": [],
      "stateMutability": "pure",
      "type": "function"
    },
    {
      "inputs": [],
      "name": "modifyStorage",
      "outputs": [],
      "stateMutability": "nonpayable",
      "type": "function"
    },
    {
      "inputs": [],
      "name": "someVar",
      "outputs": [
        {
          "internalType": "uint256",
          "name": "",
          "type": "uint256"
        }
      ],
      "stateMutability": "view",
      "type": "function"
    }
  ],
  "bytecode": "0x60806040523480156100195760008061001661001f565b50505b5061008d565b632a2a7adb598160e01b8152600481016020815285602082015260005b8681101561005a57808601518160408401015260208101905061003c565b506020828760640184336000905af158600e01573d6000803e3d6000fd5b3d6001141558600a015760016000f35b505050565b61025f8061009c6000396000f3fe608060405234801561001957600080610016610129565b50505b506004361061004a5760003560e01c806321eba2da1461005857806335a063b414610076578063e8af2fa514610080575b600080610055610129565b50505b61006061008a565b6040518082815260200191505060405180910390f35b61007e610097565b005b610088610116565b005b6000610094610197565b81565b6000610114576040517f08c379a00000000000000000000000000000000000000000000000000000000081526004018080602001828103825260068152602001807f41424f525421000000000000000000000000000000000000000000000000000081525060200191505060405180910390610111610129565b50505b565b6005600081906101246101fa565b505050565b632a2a7adb598160e01b8152600481016020815285602082015260005b86811015610164578086015181604084010152602081019050610146565b506020828760640184336000905af158600e01573d6000803e3d6000fd5b3d6001141558600a015760016000f35b505050565b6303daa959598160e01b8152836004820152602081602483336000905af158600e01573d6000803e3d6000fd5b3d6001141558600a015760016000f35b8051935060005b60408110156101f5576000818301526020810190506101db565b505050565b6322bd64c0598160e01b8152836004820152846024820152600081604483336000905af158600e01573d6000803e3d6000fd5b3d6001141558600a015760016000f35b60005b604081101561025a57600081830152602081019050610240565b50505056",
  "linkReferences": {},
  "deployedLinkReferences": {}
}